:100000000C942A000C9449000C9447000C9447006F
:100010000C9447000C9447000C9447000C94470044
:100020000C9447000C9447000C9447000C94470034
:100030000C9447000C9447000C9447000C94470024
:100040000C9447000C9447000C9447000C94470014
:100050000C94470011241FBECFE5D8E0DEBFCDBF12
:1000600010E0A0E6B0E0ECE8F6E002C005900D92EA
:10007000AA36B107D9F720E0AAE6B0E001C01D9288
:10008000A037B207E1F70E94B6010C9444030C9428
:1000900000001F920F920FB60F9211242F933F93DF
:1000A0004F935F936F937F938F939F93AF93BF9380
:1000B000EF93FF934DE650E061E081E40E94E2029D
:1000C0004FE650E060E081E40E94E2024EE650E03C
:1000D00061E082E40E94E20280916F00813019F4B5
:1000E00080936A000CC080916D00813041F448E03B
:1000F00060E081E40E94900082E080936A00FF91BA
:10010000EF91BF91AF919F918F917F916F915F918F
:100110004F913F912F910F900FBE0F901F90189508
:100120009FEB980F943070F4483029F440E00E941F
:100130006C0281E00895493039F441E00E946C027C
:1001400081E0089580E0089581E00895CF9341E033
:1001500060E082E40E94D301813011F0C0E001C070
:10016000C1E041E061E084E40E94D301813009F400
:10017000CF5F41E064E081E40E94D301813009F463
:10018000CF5F41E065E082E40E94D301813009F451
:10019000CF5F41E063E083E40E94D301813009F442
:1001A000CF5F41E067E081E40E94D301813009F430
:1001B000CF5F41E060E083E40E94D301813009F425
:1001C000CF5F41E067E084E40E94D301C73011F4BF
:1001D00081E001C080E0CF9108951F93CF93DF931A
:1001E000C82FD0E0FE01E05AFF4F408181E0482750
:1001F000417060E082E40E946C02813011F010E0F6
:1002000001C011E0FE01E05AFF4F4081469581E0B8
:100210004827417061E084E40E946C02813009F457
:100220001F5FFE01E05AFF4F40814695469581E0F1
:100230004827417064E081E40E946C02813009F437
:100240001F5FFE01E05AFF4F408146954695469557
:1002500081E04827417065E082E40E946C028130B1
:1002600009F41F5FFE01E05AFF4F408142954F7035
:1002700081E04827417063E083E40E946C02813092
:1002800009F41F5FFE01E05AFF4F408142954695F9
:10029000477081E04827417067E081E40E946C026A
:1002A000813009F41F5FC05ADF4F4881429546955F
:1002B0004695437081E04827417060E083E40E94E6
:1002C0006C02813009F41F5F173011F481E001C026
:1002D00080E0DF91CF911F910895CF9341E060E0DE
:1002E00082E40E94D301813011F0C0E001C0C1E07E
:1002F00041E061E084E40E94D301813009F4CF5FE2
:1003000041E064E081E40E94D301813009F4CF5FD1
:1003100041E065E082E40E94D301813009F4CF5FBF
:1003200041E063E083E40E94D301813009F4CF5FB0
:1003300041E067E081E40E94D301813009F4CF5F9E
:1003400041E060E083E40E94D301813009F4CF5F93
:10035000C73011F481E001C080E0CF91089541E001
:1003600067E084E40E946C0281E008950E94A60088
:10037000182F0E94AF010E946D010E9425030E9468
:1003800025030E9425031130B1F707C08C2F0E946E
:10039000ED000E942503219602C0C0E0D0E0CA30E3
:1003A000D105A4F3E8CF9FEB980F943008F086C0F6
:1003B000423008F085C0823449F118F4813441F0AC
:1003C00081C0833409F440C0843409F45AC07AC02F
:1003D00041110DC02AB381E090E002C0880F991F3F
:1003E0006A95E2F7809582238ABB81E008954130C7
:1003F00009F06AC02AB381E090E002C0880F991F1B
:100400006A95E2F7822B8ABB81E0089541110DC005
:1004100027B381E090E002C0880F991F6A95E2F748
:100420008095822387BB81E00895413009F04EC05A
:1004300027B381E090E002C0880F991F6A95E2F728
:10044000822B87BB81E0089541110DC024B381E068
:1004500090E002C0880F991F6A95E2F78095822389
:1004600084BB81E00895413099F524B381E090E0A8
:1004700002C0880F991F6A95E2F7822B84BB81E046
:10048000089541110DC021B381E090E002C0880FB2
:10049000991F6A95E2F78095822381BB81E00895D8
:1004A0004130C1F421B381E090E002C0880F991F70
:1004B0006A95E2F7822B81BB81E0089580E0089580
:1004C00080E0089581E0089581E0089581E0089535
:1004D00081E0089581E008959FEB980F943008F033
:1004E0006BC0423008F06AC0823409F118F48134DC
:1004F00039F066C0833491F1843409F446C060C099
:100500002BB381E090E0062E02C0880F991F0A9459
:10051000E2F7809582238BBB8BB350E002C0440F7F
:10052000551F6A95E2F7482B4BBB81E0089528B32D
:1005300081E090E0062E02C0880F991F0A94E2F72E
:100540008095822388BB88B350E002C0440F551FBA
:100550006A95E2F7482B48BB81E0089525B381E016
:1005600090E0062E02C0880F991F0A94E2F780954A
:10057000822385BB85B350E002C0440F551F6A95A6
:10058000E2F7482B45BB81E0089522B381E090E07B
:10059000062E02C0880F991F0A94E2F780958223E5
:1005A00082BB82B350E002C0440F551F6A95E2F748
:1005B000482B42BB81E0089580E0089580E00895D3
:1005C00081E008959FEB980F9430D8F58234A9F01C
:1005D00018F4813431F037C08334D9F0843429F1F0
:1005E00032C089B390E002C0959587956A95E2F78D
:1005F0008170FA01808381E0089586B390E002C0A3
:10060000959587956A95E2F78170FA01808381E07C
:10061000089583B390E002C0959587956A95E2F7B7
:100620008170FA01808381E0089580B390E002C078
:10063000959587956A95E2F78170FA01808381E04C
:10064000089580E0089581E0089513BE12BE83B737
:10065000816083BF0BC008B600FEFDCF019690936A
:100660006C0080936B0088B7816088BF80916B00BD
:1006700090916C00883E23E092076CF310926C001E
:0C06800010926B0013BE0895F894FFCF99
:0A068C003F065B4F666D7D077F6F30
:00000001FF
